:0200000407FCF7
:10000000288BFC071501FC074901FC076101FC076F
:1000100000000000000000000000000000000000E0
:100020000000000000000000000000007901FC0753
:1000300000000000000000001101FC071101FC0796
:10004000C11FFC071920FC07A526F007E111FC07DA
:10005000810AFC071101FC074D05FC071101FC0793
:100060001101FC071101FC076508FC076F08FC077C
:100070007908FC078308FC078D08FC071101FC07C1
:10008000BD12FC071101FC071101FC071101FC075F
:100090001101FC071101FC071101FC071101FC070C
:1000A0000000000000000000000000000000000050
:1000B0000000000000000000000000000000000040
:10011000FEE7000019491A4A1A4B9B1A03DD043BFB
:10012000C858D050FBDC184B184CA34208DA1968A9
:100130005A680020043A01DB8850FBE70833F4E7F3
:1001400001F08AF900F04CF804207146084203D00F
:10015000EFF309800E490847EFF308800C49084780
:1001600004207146084203D0EFF30980094908478B
:10017000EFF3088007490847FEE700000C59FC0729
:100180000C59FC077859FC07FC58FC070C59FC0774
:100190001514FC07FD13FC0710B5064C2378002B43
:1001A00007D1054B002B02D0044800E000BF01231B
:1001B000237010BD8059FC0700000000A458FC0704
:1001C000044B10B5002B03D00349044800E000BFE6
:1001D00010BDC046000000008459FC07A458FC076D
:1001E000164B002B00D1144B9D46402292029A1AC6
:1001F000924600218B460F461348144A121A05F006
:1002000006F80F4B002B00D098470E4B002B00D068
:1002100098470020002104000D000D48002802D05E
:100220000C4800E000BF04F0C5FF2000290002F0E8
:1002300081F804F0A9FFC04600000800288BFC07E5
:1002400000000000000000008059FC07385AFC073D
:10025000000000000000000073B50023012680228A
:100260000096B24018000921002400F0ABFAC02526
:100270008022AD002300200000949200052100F0B0
:10028000A1FA2A003100009620001D2300F09AFAFE
:100290002A00200000941C23042100F093FA2A0075
:1002A0002100200000941B2300F08CFA00941A23F4
:1002B00022000321200000F085FA73BD10B501244F
:1002C0000B4B1B201C8000F0E7FE04F01BFF0948CD
:1002D00000F01AFD084800F06FFCFFF7BDFF074A69
:1002E0001388A3431C43148000F088F810BDC04657
:1002F000000300504452FC073C52FC070C03005022
:10030000F0B58BB003F020F9364B00240293364B46
:1003100002AA0393152313722300344F0190FA5657
:100320002D2A01D10133DBB2FD18AA1C944600210D
:10033000AC4538D102A82218023301345172DBB225
:10034000102CECD11923012200261B180A20284C5E
:100350005A701E702378652158435EF769FE1B238F
:1003600002AA9B1858701E701E25C523019F02AA61
:100370000C37537702A92A00380004F03FFF019B95
:10038000019ADD72F0235B009380D3802300083351
:10039000DB8FB3421FD103F0DBF80834E38F013366
:1003A000E3870BB0F0BD28780200303AD2B2092AB8
:1003B00005D90200613A052A06D85738C2B20901A8
:1003C0001143C9B20135B3E70600413E0022052EB4
:1003D000F5D83738F2E7330032002900380063F7E8
:1003E000ABF8DAE70201061AFF4C00025052FC0794
:1003F000288BFC0710B5FFF783FF10BD10B5074829
:1004000000F0F6FF0521002000F0F2F9011E04D1F2
:1004100003000122202000F0B3FF10BDF503FC070C
:1004200013B5040000F07AFC002000F01DFD6B46BF
:10043000D81D00F0EDFC002C01D100F08FFC13BDA5
:1004400010B5002003F0CCF8054B28331A78002AA9
:1004500004D0002203481A7042F788F910BDC04644
:10046000548EFC071111111110B544280DD102F062
:1004700005FA0223054A11880B431380042304491B
:100480000A881A42FCD0FFF7B9FF10BD10000050D7
:100490001400005010B5114C00280BD1104B2060F7
:1004A0006060A060E06020616361210010305CF753
:1004B000A0FC10BDE08A60F721FF002802D043684D
:1004C000200098470023FF22A08AE2826360A36095
:1004D000E38110405CF7E7FCEBE7C0467C8BFC0750
:1004E0001000FF0070B5064C0500E08A60F706FFBB
:1004F000002803D0836829002000984770BDC046BB
:100500007C8BFC077021034A000113888B4318433E
:1005100010807047061500500721034A13888B434B
:10052000184310807047C046061500500123024A48
:1005300011880B4313807047001500500223024AB4
:1005400011880B4313807047001500500122044BA3
:1005500010B51A80034B1B68002B00D0984710BDC4
:100560000E150050948BFC078023054A5B0111880F
:100570000B4313806423C046013B002BFBD1704723
:1005800000150050024A034913880B40138070473E
:1005900000150050FFEFFFFF0023F7B54D4D40273A
:1005A0002B8084234C4C9B0023804C4B06001F80E7
:1005B00002F05AFE70214A4A108013888B433B4355
:1005C0001380484BDF67BFF34F8FBFF36F8F434BF1
:1005D0000193002E50D02A883378BA439B011343ED
:1005E0002B807078FFF78EFF3378002B03D1707863
:1005F0000009FFF791FFF2780423002A3FD02A88F0
:1006000013432B80354B384F1A883379D2B21B02F3
:100610001343324A1380354B1B885B065B0F042B58
:1006200034D102F027FE324B00282CD01880FFF77F
:100630009BFF80232A889B0013432B8040232A881A
:100640009A4313432B800423228813432380238857
:10065000DB04DB0C238023883B40F0277F011F4312
:1006600027802288234B1A40C0235B0013430322B8
:100670002380238893432380FFF758FFF7BD2A8800
:100680009A432A80BEE71C4A1A80D0E7FFF77AFF18
:100690002288B378174003225B021F43BFB2278032
:1006A000238893431A00737913432380B379002B73
:1006B0000BD080232A889B0013432B802288F37958
:1006C0000C499B010A401343D5E72B880B4A134082
:1006D000F3E7C04600150050021500500415005005
:1006E0000C15005004E100E0FFE1FFFF061500508B
:1006F0009C59FC073FFEFFFF40760000FFFDFFFF17
:1007000010B5FFF71BFF02230E490A881A42FCD1DD
:1007100001220D4B1A800D4B18880D4B1B88C31AF4
:10072000FA2080005843002808DD0A4BC0180A4907
:100730005EF77EFC8011193040B210BD0028F6D063
:10074000064BF3E7001500500E1500501015005031
:100750009C59FC07D5020000AA0500002BFDFFFFF5
:100760001022002806D00022431E43405B109BB29B
:10077000002B01D11000704701325B0892B2F7E7FD
:100780007047000010B5044C4001001949004018A2
:100790001A43028010BDC04606300050034B400192
:1007A000C01801238B409BB2038070470230005079
:1007B000034B4001C01801238B409BB2038070475C
:1007C00004300050F8B51F0006AB1B7804000D0084
:1007D0001600002B08D0FFF7E1FF3B003200290094
:1007E0002000FFF7CFFFF8BDFFF7E2FFF5E70000BD
:1007F000034B4001C018008801230841184070478E
:100800000030005070B5012633000A388340064D91
:1008100098B22C889C43FFF7A3FF864024B2344350
:10082000A4B22C8070BDC0460E14005010B5040058
:10083000FFF7E8FF2300094A0A3B9B009B58002B67
:1008400001D0984710BD002CFCDB1F23C0221C40A8
:100850001E3BA340024952008B50F3E7988BFC07E4
:1008600000E100E010B50A20FFF7E0FF10BD10B571
:100870000B20FFF7DBFF10BD10B50C20FFF7D6FFF4
:1008800010BD10B50D20FFF7D1FF10BD10B50E2023
:10089000FFF7CCFF10BD000010B5040000F0D6FB40
:1008A000A04202D2200000F0DDFB0123054A11889E
:1008B000194206D111880B431380034A13885B0742
:1008C000FCD510BD800000502A000050014B187864
:1008D0007047C046AC8BFC070022014B1A70704772
:1008E000AC8BFC0737B50722124C05002368134078
:1008F0006A46D371D379834218D00F4B1B88DB052E
:100900000AD50238042807D804F034FC0311030385
:1009100003000B20FFF7C0FF072320680749984317
:1009200028432060033B0A681A42FCD037BD1320DD
:10093000F0E7C0460000F4072A0000500400F40766
:10094000044B8000C258044B1A60044B044A1A60DE
:100950007047C0469452FC071000F4071400F407D7
:10096000090404A470B5EFF31084012585F3108801
:10097000144B1B88DB0509D5134B1D7000F066FB7B
:10098000124B134A1B8810702B405370A0228023F7
:10099000D20511880B43072113800E4A13688B433D
:1009A000136004230C490A681A42FCD00320FFF7A5
:1009B000C7FF002C02D184F3108870BD012383F39C
:1009C0001088FAE72A000050AC8BFC07800000502A
:1009D000FC59FC070000F4070400F40770B5EFF3BE
:1009E0001084012383F31088A022D20511887F335D
:1009F0000B4307211380184A13688B4313600423A9
:100A000016490A681A42FCD0154B164A80211A6012
:100A1000154B164A1A60A022D20513888B43138007
:100A2000134B1B88DB050ED50022124D124B287884
:100A30001A7000F017FB6B78002B04D101210F4ACC
:100A400013888B431380002C02D184F3108870BD6F
:100A5000012383F31088FAE70000F4070400F40789
:100A60001000F4070F0099091400F407090404A406
:100A70002A000050FC59FC07AC8BFC07800000509A
:100A800010B5074B988D074B80B2DB6A002B01D065
:100A9000984710BDC0231021034A5B00D150F8E7EE
:100AA00000130050A059FC0700E100E00100FA200B
:100AB00070B5C0010A4C814205D17F2322899A4337
:100AC0001343238170BD49005EF7B2FA7F23258965
:100AD0000138ADB2C0B29D4328432081F2E7C04641
:100AE0000012005010B5EFF31081012282F310883C
:100AF00080230648DB00048823430380002902D1B9
:100B000081F3108810BD82F31088FBE704000050C9
:100B100010B5EFF31081012282F310880648074CCC
:100B2000038823400380002902D181F3108810BD7F
:100B300082F31088FBE7C04604000050FFFBFFFF74
:100B40000321034A93888B43184390807047C04623
:100B50000012005010B5164B164A012810D000287C
:100B600005D07C2102281DD09C888C4303E07C2486
:100B70009988A1430C001C2121439980012307E09F
:100B80007C249988A1430C003C21214399800223B5
:100B900013740F231E211840137840008B43184311
:100BA000107010BD9C88214399800423F0E7C04653
:100BB00000120050B08BFC0770B50500FFF792FFE4
:100BC000202328791E4C802640072380400FFFF702
:100BD000C1FF28780007400FFFF7B2FF01202B78F4
:100BE000A288DB07DB0FD901B2430A43A280154A72
:100BF000117881430B4313700023A38123891E4383
:100C00002B782681034214D12B7911789B061E3054
:100C10005B0F01405B010B4313706888FFF746FFD1
:100C20004021EB792288DB07DB0F9B018A431343CA
:100C300023802022238800209343238070BDC04658
:100C400000120050B08BFC072021044B1A888A4305
:100C50001A80034A127852099A8470470012005091
:100C6000B08BFC070023044A9384118820339943F6
:100C70000B4313807047C046001200501F211A4BCF
:100C800010B51A888A431A800222198891430A43B0
:100C90001A800422198891430A431A800122198874
:100CA00091430A4311491A800A78D206120F012A89
:100CB00001D9040C1C85802480B218846401188B2F
:100CC0002040FCD1012A01D9188D00041E22097888
:100CD000114206D1988BC0B21A8BD20B012AFBD0DD
:100CE00010BD9A8B1018F7E700120050B08BFC076C
:100CF00010B50400FFF7A8FF2000FFF7BFFF0400B6
:100D0000FFF7B0FF200010BD10B501000C22024813
:100D100004F074FA10BDC046D059FC0710B5FFF7B7
:100D200093FFFFF79FFF0020FFF714FFAB20FFF7B3
:100D3000DFFF002010BD10B50120FFF70BFFA02042
:100D4000C000FFF7D5FF80B210BD10B5FFF7F3FF6D
:100D50000023C20700D50E3B180010BD10B5FFF7E9
:100D6000F4FF041E04D1FFF7F5FEB920FFF7C0FF22
:100D7000200010BD70B50125054CFFF7DCFF2840B1
:100D800004D0013C002CF8D10120404270BDC04687
:100D900080841E0070B50500FFF7D7FF041E0DD13B
:100DA000FFF7D8FE2800FFF7A3FFFFF7E3FF041EBD
:100DB00004D1FFF7C0FF830700D40C3C200070BDB6
:100DC00070B50500FFF7C1FF041E1FD1FFF7C2FE7B
:100DD000FFF73AFF9F20FFF751FF2000FFF74EFF7C
:100DE000FF2300041B04184028602000FFF746FF83
:100DF0002B680006000C184328602000FFF73EFF18
:100E00002B68C0B218432860FFF72CFF200070BD8C
:100E1000F0B5A3B001AD842212490700280004F008
:100E2000EDF96846FFF7CCFF041E10D1009A531E5F
:100E3000033315D80C2103008C4666465E43A8197F
:100E400041688A4206D1FFF75FFFAB5D3B7020002F
:100E500023B0F0BD01330B2BEFD10A246442F6E737
:100E60000B24FBE7B052FC070020704770B506006A
:100E70000C00FFF76AFF051E0BD10620FFF78AFF63
:100E8000051E06D10220FFF765FE20063043FFF75E
:100E90002FFF280070BDF8B505000E001700FFF702
:100EA00054FF00281ED10630FFF774FF002819D127
:100EB00080233C1C5B009F4200D91C1C0220FFF7D2
:100EC00049FEFFF7C1FE802080043043FFF7D6FEC5
:100ED0000020A4B2FFF73EFE002C04D1FFF7C2FEB3
:100EE000FFF748FFF8BD2878013CFFF7C7FEA4B222
:100EF0000135F1E7F0B5FF240F0085B00290002026
:100F0000039315000C43FFF725FE124B9B68DB1B78
:100F10000193AB4200D901950026019D019B9E42A1
:100F200004D30020039B1E6005B0F0BD7B19A342D3
:100F300001D9651CED1B029BAAB298193900FFF775
:100F4000AAFF0028F0D1019B7619671C0134FF34F9
:100F50009D1BE3E7D059FC07F7B507000D00019290
:100F60001C00FFF7F2FE061E1BD1134B019A9B6873
:100F700052199A4217D95B1B23600220FFF7EAFD42
:100F8000FFF762FEC02080042843FFF777FE0020B1
:100F9000FFF7E0FD3D002268EB1B9A4205D8FFF702
:100FA00061FE3000FEBD019BE6E70020FFF766FE14
:100FB00028700135EFE7C046D059FC070D4A10B53F
:100FC00011880D4CC30821405B020B43E0211380C4
:100FD0008901C0021388084008490B4018430123C7
:100FE0001080074A11880B431380064A13885B0759
:100FF000FCD510BD54000050FFF9FFFFFFC7FFFFF5
:10100000800000502A000050A0233022DB05198800
:101010000A431A80032219880A431A807047A023C2
:101020003021DB051A888A431A801A882D398A43B1
:101030001A807047034A0449138800020B40184382
:101040001080704738300050FFFCFFFF044A1388BF
:1010500010885B059B0F8004DB00400FC0187047B1
:1010600054000050094A10B51188094CC3082140AA
:101070005B020B43E02113808901C0021388084002
:1010800004490B401843108010BDC0465400005066
:10109000FFF9FFFFFFC7FFFF134B10B51B880400CC
:1010A000DB051ED5FFF712FC00280CD10F4B1B8867
:1010B000DB040ED501220E4B20001C705A70FFF786
:1010C0007DFF002010BDFFF7C1FFA042EED9012037
:1010D00008E0084B1B881B07ECD4072CEAD8052036
:1010E00000E002204042EDE72A000050520000508C
:1010F000FC59FC0720030050F7B51D4D1D4E2B6811
:10110000B34234D0E020012140005BF765FB1A4B6D
:101110001A491B6801911A0A0B704A701A0C1B0EAF
:101120008A70CB70032102008C4604000300C1309A
:10113000C032FF30FF3200906746187811780740C0
:1011400041400198013AC05D414019700099013356
:101150009942F1D10A4F1C22210038005FF760FF4D
:1011600020005BF7B4FB386841F7CFFB2E60F7BD7A
:101170009CB8FC0765873412F459FC07DC59FC075E
:10118000E059FC07F7B500240126134B1349D88D0D
:101190009A6A9F8D121887420BD8002C00D0D885F0
:1011A00001248A88A2438A809B6B002B0CD098472D
:1011B0000AE08D8AAC46451CADB2019565463542C4
:1011C00003D1002C00D0D885F7BD088834001070FA
:1011D00001320198DFE7C046C48BFC0700110050C4
:1011E000F7B5334C27000F232089184001380B280E
:1011F000F9D803F0B5FF5C06F849F84C56F8F8F852
:10120000F82001250026AC462A4AD38C116A908C1E
:10121000C918019198421BD8002E00D0D384022116
:10122000A3888B43A380A3887E318B43A380536B19
:10123000002B0BD1D5E7FFF7A5FF0122A38893432D
:101240001C4AA380936B002BCBD0D08D9847C8E766
:101250003F213D898D43EDB2C02D12D1164D3D3950
:101260002D880D4209D0019901330D7801993D80F7
:1012700001319BB201916646CCE7002EB1D0D384F8
:10128000AFE7BD8A2021ECE7FFF77CFFA9E7094B18
:101290001B6B002BA5D09E22A18A114004489847C1
:1012A0009FE7044B1B6B002B9BD00121F6E7F7BD9A
:1012B00000110050C48BFC077C11005070B5FFF783
:1012C000AEFE264B1A8812051CD50520244A11882B
:1012D0000140814216D1042311880B430121138060
:1012E00013888B4313801F4B1B68002B09D01E4AA9
:1012F00010881E4A00B211881D4A09B2128812B223
:10130000984770BD1A88D20613D50124194802885F
:1013100022420ED08021184A15880D4209D004803F
:1013200013888B4313800F4B5B68002BE9D09847E1
:10133000E7E71B88DB06E4D502210E4A13880B423F
:10134000DFD00D4B1888C005DBD511801A880B49FA
:101350000A401A80034B9B68E7E7C0460400005030
:1013600000020050048CFC070202005004020050EE
:101370000A0200500401005000010050FFFEFFFF70
:1013800070B51024134D89B22E88013A34432C8055
:1013900004253F26104C33402580104D80B22C8808
:1013A000B4432343FF242B800D4B224019800D4B67
:1013B0001A8080232A881A432A800B4A1080C4206E
:1013C0000A4A80001158A1430B43135080235B024B
:1013D000136070BD04000050040100500001005073
:1013E0000C010050020100500801005000E100E033
:1013F000014B58607047C046048CFC07C822034B61
:101400001A80034BC03A1A80FEE7C04600310050F4
:101410000233005004230B4A11880B4313804023EE
:10142000094A11880B431380C0230121074A5B003E
:10143000D150074A074913880B4004310B431380EE
:101440007047C046100000500800005000E100E066
:1014500012000050FC7F00000721204A13888B43B4
:1014600013801F4B1B88DB0716D51E4B1B88002BD8
:1014700012D11D4A1D4B51881D48198091881D4B62
:101480001980D1881C4B1980138801881B4ADB0105
:101490000A4013439BB203800622194B1A80802214
:1014A000184B1202DA67BFF34F8FBFF36F8F022220
:1014B000DA67BFF34F8FBFF36F8F013ADA67BFF37D
:1014C0004F8FBFF36F8F04210F4A13888B43138014
:1014D000A0230022DB051A8062B670470803005083
:1014E00010030050040300507859FC0728000050F6
:1014F0001200005024000050200000507FFEFFFF2B
:101500000034005004E100E00A0000500020704761
:101510007047704710B5031CE6280CD9084B1B78A0
:10152000D8B2F923FA215B00584389005DF780FDAA
:101530007F38C0B210BDC2B2282AF1D22823EFE70B
:101540003453FC07704700000723054A11680B431A
:101550001360044A044913680B4013607047C04687
:101560003000004000020040FFFFFBFF13B5FF24E6
:10157000084908680190019A019B120C22402340FF
:10158000054C0A3220400A331204034313430B6014
:1015900013BDC0468000004000FF00FF10B50220D0
:1015A000FFF748FD0C4A0D4913680B4013600022F9
:1015B0000B4B0C491A601A681140802292020A43B0
:1015C00080211A60F022C9050B6893431A00E023BA
:1015D00013430B6010BDC04600020040FFFFDFFF59
:1015E00074000040FFFFE0FF4B1E10B5012B06D931
:1015F000C8220D4B1A800D4BC03A1A80FEE7431EDD
:10160000DBB2FD2B06D8C822074B1A80074BC03A25
:101610001A80FEE7FF2802D100F066FC10BD022907
:10162000FAD10C20FAE7C0460031005002330050D6
:1016300070470000464B10B54362464B002483625E
:10164000454B8AB04361030030331C70434BC36287
:10165000434B0360434B0362434B4360434BC361C3
:1016600000F076FA4249434A0B681A4080239B02F5
:101670001343414A0B60136840490B40136022003A
:101680006B46D2540132282AFAD13D4B694618687C
:10169000403003F0B3FD092000F020FC00F02AFCEC
:1016A000002802D0012000F019FC00F0EDFB01F051
:1016B0007BFD01F0ADFD00F0FDF8FFF757FFFFF7F0
:1016C0006DFF00F0DDFB2F4B19882F4BDA69120CF0
:1016D00012040A43DA612D4A11881A6A120C1204A4
:1016E0000A431A622A4A11889A6A120C12040A439F
:1016F0009A62284A1188DA6A120C12040A43DA62E2
:10170000254A11889A69120C12040A439A61234AE5
:1017100011881A6B120C12040A431A63204A1188AA
:101720005A6B120C12040A435A631E4A11889A6BB0
:10173000120C12040A439A631B4A1188DA6B120CCA
:1017400012040A43DA6300F0BDFB0AB010BDC046C4
:101750000D15FC071115FC07E915FC074915FC07D9
:101760001315FC073116FC074515FC071515FC077A
:1017700074000040FFFFE0FF00020040FFFFF7FFA2
:101780004CB9FC071830004070A0FC071A3000402C
:10179000383000403A3000401030004064300040A3
:1017A0006630004022300040243000401C491D4A71
:1017B0000B6810B51A4080239B02134380220B60F4
:1017C0000721D20513688B4313600823164A11883A
:1017D0000B43138000F08EFB002802D0012000F0A4
:1017E0007DFB00F051FB01F0DFFC01F011FD00F08A
:1017F00061F8FFF7BBFEFFF7D1FE0C4A0C4B1988CE
:10180000936A1B0C1B040B4393620A4B1988D36A1F
:101810001B0C1B040B43D36200F054FB10BDC046ED
:1018200074000040FFFFE0FF0800005070A0FC07BC
:10183000383000403A30004070B50500074C702247
:101840000749200003F0DAFC064B0748ADB25B1BEA
:10185000401B9BB280B22381608170BD70A0FC07E9
:101860003853FC07B8A0FFFFCCA0FFFF10B500F075
:101870000BFB01F0CDFC00F01DF8FFF777FE00F048
:10188000FFFA094A094B1988D3691B0C1B040B4347
:10189000D361074B1988136A1B0C1B040B4313629B
:1018A00000F010FB10BDC04670A0FC0718300040CF
:1018B0001A3000406749684A0B6870B51A40B02377
:1018C0001B0113430B606549654B0A68C02092B247
:1018D0001343644A0B601368634980000B40802106
:1018E00089010B431360614A614D1368614E0343E4
:1018F00013601023604A14882343138001235F4A36
:101900001488234313805E4B5E4A5F4C1A60238821
:101910005E4A1A40BC239B00134323805C4C5D4B02
:101920002268520D52051A4322605B4C5B4A2368C1
:101930001A4090235B0113432360594C594A236892
:101940001A40594B13432360584C594A23681A4094
:10195000584B13432360584C584A23681A40584B3D
:1019600013432360574C584A23681A40574B13437C
:101970002360574B574C1A78C12312065B0113435F
:10198000554A1360A022554B52011A80544B554AB8
:101990001A80FF22238893431A00552313438D2274
:1019A0002380514B92001A80504B514A514C1A805F
:1019B000514B524A1A80524B524A1A80524B534A48
:1019C0001A80534B534A1A802368534A1A40534B88
:1019D00013436C222360B024514BFF321A802A88B3
:1019E000504BA4001A4022432A809022358892004E
:1019F0001D402A433280A8224B4E920035881D405C
:101A00002A434A4D32802A881A4014432C80C62427
:101A1000474A64001480474C228813401F22184311
:101A200020804548038893431A0019231343434AEF
:101A3000038013884248034019431180072241491B
:101A40000B6893431A00032313430B603E4A3F4B3A
:101A50001A6070BD34300040FF80FFFF203000402E
:101A60000000888838300040FF00FEFF5030004002
:101A700038120040441200405C30004024300040E6
:101A80008000004059055C07202000400FFCFFFF4C
:101A90001820004009581A001C200040FEE1FFFFFA
:101AA00004200040E0E00000080929490820004027
:101AB00000000303696A686C0C200040031FFFFFED
:101AC0007060000010200040E0E0E0E00B0A0A082F
:101AD000108CFC0748130040001000402813004001
:101AE0002C13004005140000501300405413004014
:101AF000340A00003C200040581300405108000008
:101B00005C130040260A00006013004058080000E3
:101B10002C200040070F00002F64E0FE101A060181
:101B2000001200401FFCFFFF481200404C12004012
:101B300004120040881200409C1200403C100040FB
:101B4000FF9FFFFF801000405001500164100040D3
:101B5000704700000222064B82B01A7000230193E6
:101B6000019B0A2B01DD02B07047019B0133F6E7B0
:101B70000610004000230B4A82B013600193019BC2
:101B8000FF2B0CDD1F22084B08491B7808481A4020
:101B90000B885201034013430B8002B07047019B36
:101BA0000133EBE7AC1000400C59FC074C1200402D
:101BB0001FFCFFFF0E4A0F49136882B09B05DB0E26
:101BC0000B7013880C490B40138001220B4B1A70C9
:101BD00003230B4A11780B43137000230193019BDD
:101BE000FF2B01DD02B07047019B0133F6E7C046D1
:101BF0004C1200400C59FC071FFCFFFF0610004070
:101C0000AC100040194B1A4A19683F20116001229C
:101C100052421A60174B18491A6882431A601A68B0
:101C20000A401A60154B16491A8811408022D200CA
:101C30000A4370211A801A888A43110040220A43FD
:101C40001A80104B10491A681140B02252050A43FD
:101C50001A601A680D491140C022D2000A431A6066
:101C60001822196881430A431A60704740300040C7
:101C7000F059FC0718300040FF7FFFFF1C30004088
:101C8000FFF9FFFF30300040FFFFFFC03FF0FFFFD4
:101C9000114B3F201A68114B1A601C22104B196817
:101CA00081430A431A601A680E490A401A600E4BB3
:101CB0000E491A681140E02252050A431A601A6858
:101CC0000B491140F022D2000A431A601E22196803
:101CD00081430A431A607047F059FC0740300040C6
:101CE00018300040FF7FFFFF30300040FFFFFFC093
:101CF0003FF0FFFF4122054B05491A701A88114039
:101D00008022D2000A431A807047C0461C3000402F
:101D1000FFF9FFFF03237F22F0B5514D51492B708E
:101D20000B688BB093431A00142313430B60FFF727
:101D300069FF43234C4C4D4F2370FFF70BFFFFF718
:101D400039FF002301940493049BBB4200DC72E042
:101D50000323474E2B703368DB05DB0D0293FFF73F
:101D600009FF00230593059B0F2B68DD414C029A68
:101D70002368D2055B025B0A134323603E49236854
:101D8000520C0B4013432360FFF7B4FFFFF7E2FE52
:101D9000FFF710FF00230693374B0293069BBB42CD
:101DA00050DD03232B703368DB05DB0D0393FFF756
:101DB000E1FE00230793079B0F2B47DD2368039A5F
:101DC0005B02D2055B0A1343236002992368520C1D
:101DD0000B4013432360FFF78DFFFFF7BBFEFFF7B8
:101DE000E9FE00230893089BBB4232DD03232B70DE
:101DF00035682368ED05ED0D5B02EA055B0A1343C8
:101E0000236023680299520C0B4013430122236084
:101E1000019B1B889343019A1380FFF739FFFFF75B
:101E2000A9FE00230993099B0F2B15DD0120134BFD
:101E30005D810BB0F0BD049B0133049384E7059BE7
:101E400001338FE7069B01330693A7E7079B013316
:101E5000B0E7089B0133C5E7099B0133E2E7C046C1
:101E600005100040043000401C300040FF0300001B
:101E700088300040183000403F80FFFFFE59FC07CB
:101E800010B5FFF747FF10BD08220C4B82B01A7047
:101E900000230093009B0F2B09DD00230193019B7E
:101EA0000F2B07DD0322064B1A7002B07047009B10
:101EB0000133EEE7019B0133F0E7C0460410004018
:101EC000051000400222034B1A700022024B1A80B8
:101ED0007047C0460610004004100040014B1870C7
:101EE0007047C046108CFC07014B18787047C046FD
:101EF000108CFC07014B58787047C046108CFC07CB
:101F0000114B70B51D680024280000F061FE0F4BD6
:101F10000F491A681C60861830005DF773F80D4B86
:101F20000B49186030005DF76DF8A14201D0084CF4
:101F3000641A0821084B094A1C6013680B4313609C
:101F4000074B1D6070BDC04638000040188CFC0770
:101F5000710200004400004040000040300000409A
:101F6000248CFC0710B5FFF75AF803210F4B1A8891
:101F70000A4202D01A888A431A8080230C4A1188A8
:101F80000B43042113800B4A13888B4313800223D5
:101F900009490A881A42FCD000F0CEF8074B1A68AB
:101FA000042219681142FCD010BDC0460A0000503E
:101FB00008000050100000501400005010000040B5
:101FC00010B5FFF721F804230D490A881A42FCD105
:101FD000FFF725F80B4B0C4C1A880C4B1A800C4B56
:101FE0000C4A1B88023B9BB2138007232380FFF718
:101FF0000BF8042322881A42FCD1FFF7B3FF10BD6F
:10200000083300506E8CFC07001600500200005090
:10201000688CFC0702160050F8B53C4B1A68D207D2
:1020200003D5022219680A431A6080221968D20374
:10203000114202D019680A431A6080260227344BE5
:102040001C68002C61D0344206D0324B1E604BF726
:102050001EFC1E2000F0AAFC3C4203D02D4B1F604A
:1020600047F713FB08231C420BD02A4A136003F0E6
:102070000CF8002047F7C2FA0422274B1A71FFF729
:1020800021FF80235B001C4204D0224A0120136000
:1020900047F7B4FA80239B001C4203D01D4A13600B
:1020A0004BF75EFC40231C4203D01A4A136047F7EB
:1020B000A0FA10231C4203D0164A136045F75CFEB9
:1020C00004231C4210D00121124A1360134A1388C2
:1020D0008B4313805BF7F8F940F7B2FA1E2000F04B
:1020E00065FC00220C4B1A7101252C4207D0094BCC
:1020F0001D605BF705FA4BF7CAFB074B1D712023E8
:102100001C429CD0034A136099E7F8BD00020040CE
:102110001000004018000040188CFC0708330050E5
:1021200010B540F7D2F8024B1A68024B1A6010BD86
:1021300008020040208CFC0710B540F7F2F8024B73
:102140001A68024B1A6010BD208CFC070802004080
:1021500073B5614D2B689B6A019300F095FB0028D5
:1021600003D15E4B1B79022B01D100230193012681
:102170005B4B1B88334201D0002076BD5AF709FA29
:102180000028F9D0554CE378002B01D10120F4E769
:10219000544B1B88334200D09BE02388002BF5D1A1
:1021A00000F072FB002806D14F4B9B6A002B02D037
:1021B0002B689B6A019300F0D9FCA17801A85AF71B
:1021C000E0FF0028E2D0494B1B685B06DED4A17813
:1021D00001A84BF7B3FC0028D8D00120FEF72AFF56
:1021E000019B002B07D0424A1268393AFF3ADA2A9B
:1021F00001D8013B01933F4B3F4819683F4B404D8D
:102200001A88404E521802603F4A13689B0A9B028C
:102210000B43136011682B6831409B020B43136022
:1022200011680368C9025B05C90A0B431360019872
:10223000364B984206D9C822354B1A80354BC03AE6
:102240001A80FEE7344B00211A685B685CF704FFD4
:102250000903000D0843431E2868421C9A4200D01F
:10226000180021794B1E9941C9B247F77DFB2B4BD2
:10227000DB6A984700F0B0FC051E01D0FEF7C4FEF3
:10228000802327491B020A681A42FCD0254B802272
:102290001C00520019681142FCD080211A688A4340
:1022A0001A60002D01D0FEF7BAFE1F4A13889BB2B8
:1022B000452B04D846211D48CB1A03601180FFF737
:1022C0002FFF802123680B42FCD0194A13888B43CF
:1022D0001380042051E7C04658B9FC0754BAFC07E4
:1022E000083300501400005074BEFC07100000407A
:1022F00020000040345AFC07285AFC07688CFC0771
:10230000305AFC07FF03E0FF3C0000403F420F0053
:102310000031005002330050508CFC0758BFFC07BE
:1023200030000040000200400A330050188CFC07C7
:1023300008000050F7B5AD49AD4A0523914203D8D6
:10234000AC4B8B429B415B428024AB49AB48AC4DCC
:1023500040182B706860E4010021A04200D81431BD
:10236000A84C0B402B72A8490523944207D8A148DA
:10237000844200D8E8E0043B914200D810330124A5
:102380006B7200F077FCA14B1C70FEF737F8092147
:102390000020FEF72DFA9D4B1B78002800D0DCE0D2
:1023A000DBB2002B03D19A4A1360984B1C70802239
:1023B000984B1B8813421CD0974B1B681B0418D4E6
:1023C000964B1E88264014D15BF717F8300000F0BA
:1023D00003FB934B1F78042F0BD1200000F0FCFA75
:1023E0003900684600964BF7A9FB002801D000F0A1
:1023F00027FB72B6FFF7ACFE042805D1894B18788D
:102400000138431E98410230831EDBB2012B00D9F4
:10241000E7E0042284490B8813430B8083490B694E
:1024200013430B6182490B88A3430B8081490B88BE
:10243000022800D0A1E00C3293430B802F7A0320B6
:102440005AF762F9002800D0C6E06B7AA8721F40E4
:10245000794BBFB21F80794B1B88DB0507D4602204
:1024600077490B8893431A00402313430B80602263
:10247000744E754F338893431A00402313433380BF
:102480003B88A3433B8000230193019B132B00DC7B
:10249000A4E003216D4B1A888A4322431A8040220C
:1024A00019881142FCD00022694B1A80694B1A88A6
:1024B000D20602D50821684A118030BF1B88DB068E
:1024C00002D50822654B1A8000F0CCF902280DD104
:1024D000584B634A1B88DB059B0F1380614B1B889D
:1024E00053803B889380604B1B88D380534B1B8861
:1024F000DB050BD45D4B1B88234207D0602250497B
:102500000B8893431A00202313430B8060223388E7
:1025100093431A00202313433380AB7A002B07D058
:10252000534B03201B689A68596892B25AF7C6F851
:10253000FDF7C4FE04223D490B6993430B6162B66B
:10254000C8224C4B1A8022E71423814200D816E798
:1025500000238A425B411B0111E7002B09D00023B5
:102560002A4A1370444A0832D387294A136001F07B
:102570000FF80023254A137019E793430B806B680B
:102580002F78DE1CFEF7EEF910232A49B6080A88D8
:10259000013E13430B80394B1E60EFF3108284F32E
:1025A0001088802012390B8883430B80002A10D1B9
:1025B00082F31088214B1B88DB0500D43FE7FEF730
:1025C0008BF90B20FEF74EFD284A13882343138016
:1025D00035E784F31088EDE7AC7239E7019B0133EE
:1025E00052E70128ABD130BFA9E7C046288BFC07D2
:1025F000FF6FFC07FF3FFC07000004F87859FC0759
:102600002C8CFC07385AFC07445EFC07798BFC07CE
:102610002C5AFC07080000503000004054BAFC0758
:102620001C8CFC07B4BAFC071000005000ED00E061
:102630000C03005012000050180000502A000050F7
:102640005200005024030050240000500A000050A3
:1026500002000050140000500033005002330050BC
:102660007859FC07280000502000005080000050DE
:1026700058B9FC0700310050288BFC072000F407F4
:102680007047000070B5364A364C374B126892B02E
:1026900025689A4205D0A02234491201344802F03C
:1026A000ADFD344E344A0021300002F0B0FDE0228E
:1026B0000021D200314802F0AAFD2560002408253F
:1026C00002F036FD2E4B2F4A2F491A602F4B302235
:1026D0002F481C8002F092FD2A002100684602F07B
:1026E00096FD3F236A46694613702A482A0002F085
:1026F00085FD4022284902A802F080FD02A940225F
:10270000264802F07BFD264B264A1C70264B0121F1
:102710001A60264B264A1A60264B274A1A600A225C
:10272000264B1A70264B28321C70264B1A70052334
:10273000254A1360254A1160254A13600622254B5D
:102740001A60254B52181A60244B254A1D608323BA
:102750005B001360234A1360234B1E6012B070BDF0
:102760009CB8FC075CBAFC076587341200B0FC0714
:102770003C93FC0700A0FC07AC14000000B9FC0768
:1027800060BAFC07E853FC077CFCF107388CFC07B7
:1027900000BAFC07DAB9FC07A853FC07B0BCFC0779
:1027A000FDB9FC07603FF20750B9FC0754B9FC07BC
:1027B000FC54FC0758B9FC071054FC07B0B9FC07DF
:1027C000B1B9FC07D9B9FC075CB9FC0760B9FC07D3
:1027D00064B9FC0768B9FC076CB9FC0770B9FC0761
:1027E00048B9FC0744B9FC074CB9FC07054A137803
:1027F000002B04D1044A1370044AD370704780231D
:102800005370FBE73A8CFC07B4BAFC0754BAFC07D8
:10281000084B1A78002A08D1431E9841064B013014
:102820001870064B0132DA707047421E90418130B9
:102830005870F9E73A8CFC07B4BAFC0754BAFC07A5
:1028400010B5012807D0002802D0022807D010BDFB
:10285000FFF7CCFFFBE70020FFF7DAFFF7E70120E7
:10286000FAE70000044B1B781800012B03D0023B51
:102870005842584140007047B4BAFC070122014B4E
:10288000DA7070473A8CFC07014BD8787047C04625
:102890003A8CFC07EFF31081012383F31088094A77
:1028A00000201288120604D4074802881A430280C6
:1028B0001800002902D181F310887047012383F3A7
:1028C0001088FAE7080000500833005030212B4BE5
:1028D00010B51A8801208A431A808022198804249E
:1028E0000A431A80082219880A4325491A800A884F
:1028F00082430A80234A1730118881431180402186
:1029000018880143204819800188A14301800221D1
:102910001E4C20880842FCD0AA201D491D4C08608E
:102920001D4908880440B02000012043012408808C
:102930000888204308801820118881430800082156
:102940000143118015490A88A2430A8040211A8850
:102950008A431A808022D205136811490B40136004
:10296000104B11491A681140802292010A431A60E3
:102970008022196892030A431A6010BD08000050B3
:10298000200000500A0000501000005014000050B9
:10299000408CFC07FFF0FFFF260000502200005093
:1029A000FFFEFFFF00020040FF81FFFF0322074BF5
:1029B0001880074B19880A431A80042219880A4391
:1029C0001A800122034B1A717047C046021600504C
:1029D00000160050408CFC0710B5144C2379002BD6
:1029E00023D0134B00281DD0042219881142FCD19A
:1029F000104BF8201A88104B12041B880F49D2186C
:102A000000235143890B013149082371A1608005DE
:102A1000492160F725FD642320615843000C616162
:102A2000A06102E01B885B07E2D510BD408CFC076B
:102A30000016005006160050041600501111010037
:102A40000122F0B52D4B89B01A601A68002AFCD11A
:102A50002B4B2C4C1B68E169994200D9E261E26979
:102A600029499A1A8A4233D9284FE3613B88284E74
:102A70009BB201933388274D9BB202932B88002190
:102A80009BB20393244B06221B8801349BB2049310
:102A900006AB981C02F0BBFB012306AA13701000C2
:102AA00003335370FDF778FDFDF72AFE1F230090D6
:102AB000E356194A05927F2B0CD10300E377029B62
:102AC000049A3380039B2B80134B1A80019B3B801D
:102AD00009B0F0BD009AD31ADBB25AB2002A01DA6B
:102AE0005B425AB2072AEADD064C636A013363622D
:102AF000FEF7BCFE0134009BE0E7C046FC0000404E
:102B00001C000040408CFC077F0C000000150050AA
:102B10000215005004150050061500500300054A28
:102B200010B5906904495843044BC0185CF76AFA21
:102B300010BDC046408CFC0740420F0020A107009A
:102B4000084B10B59A68084B984207D90023190022
:102B50005CF782FA8905800A084310BD5043800A59
:102B6000FBE7C046408CFC07FF7F000070B500F01B
:102B70008DFB0500FFF7D2FF0E4B040018852800DF
:102B80003C30FFF7CBFF0C4B0430A4B21860241884
:102B90000A4BE21D1A600A4A1278022A01D118343F
:102BA0001C601868FFF7CCFF064BC01880B25AF7BC
:102BB000B5FC70BD408CFC07345AFC07305AFC074A
:102BC000B4BAFC07E204000010B5FFF7A7FF10BD80
:102BD00010B5FFF7B5FF10BD002070470022054B70
:102BE00010B51A60FFF7C2FF034A13685B005B0869
:102BF000136010BDA8B9FC07300000400121184B3C
:102C0000184AD885138882B08B4313800023009321
:102C1000009B132B1DDD0321134B1A888A431100DF
:102C200001220A431A80402219881142FCD00F4A1F
:102C30000F49108000220192019A8A420CDD032183
:102C40001A888A431A80802219881142FCD002B067
:102C50007047009B0133DAE7019A01320192EBE7FA
:102C6000408CFC07240000500A0000500200005075
:102C700007070000C823F0B50025884F884E3B8029
:102C8000884B85B01D8008233380FDF779FD864B86
:102C900002AA1B88941D9BB2D380D08880B200E02A
:102CA00000BF04222388009793430196AB4200D0D3
:102CB000CFE001217D4A13888B431380F022082541
:102CC00006207B4B920119880E270A4379491A8006
:102CD0000A882A430A80784A14888443148080240E
:102CE0001E88E40134431C800C88744E34400C80F0
:102CF000734C2688BE43304320807248724F06884A
:102D0000F60500D4A8E0168880243E408027FF0006
:102D100037431780108824020005000D2043042447
:102D20001080188805431D801888A04318801088DB
:102D3000033CA043108040201A8882431A80032756
:102D40001A8860203A431A8020220B885F4D834303
:102D500013430B805E4901240B88FF2683431A43EB
:102D60002B000A80C0225B492A331C700B889343D6
:102D70001A0080231343584A0B8013885749B343E2
:102D800013801C220B8893431A00082313430B80E3
:102D9000FDF7E8FD0220FDF7A5FD514A1368334019
:102DA0001600AA2B00D13C00A0220C21D2051388CA
:102DB000A4008B431C43148000E000BF2800303087
:102DC00000F06AFA00F0BCF800F05AFA002861D16D
:102DD00033688030DBB2AA2B00D06E20FFF70EFFE5
:102DE0007F230135EB773F4B1A683F4B1A60FDF7A5
:102DF000F5FDFFF747FCFDF761FA01203FF785FD80
:102E0000FFF764FD394B18683FF724FA0022384B6E
:102E10001A71DA7080228023D20511685B000B439F
:102E20001360FEF769F91E20FFF7C0FD0120FFF7D0
:102E3000D3FDFFF7DBFC00F055FB00F0B7FBFFF71D
:102E4000CDFEC823009A1380019AC03B138005B0C1
:102E5000F0BD154B1D8031E716883740C026F600BF
:102E60003E43F027168016883F023E4316801E8898
:102E7000204FAE4304251E801E88AE431E80268848
:102E80003E402680012416883443148002882A425A
:102E9000FCD054E700F0F4F9A0E7C0460031005040
:102EA0000233005002310050040300501003005060
:102EB000200300505200005080000050FFBFFFFF71
:102EC000540000502A000050FFF0FFFF408CFC0728
:102ED000240300501600005030000050380000500D
:102EE000D07FF807E87FF807F459FC074CB9FC07D6
:102EF00054BAFC07FFF9FFFF704770470321044AEB
:102F000013888B43802109020B4313807047C0460E
:102F10001200005070B50D000C0020353FF7EFFC9B
:102F200020700134AC42F9D1002070BD10B55CF7BF
:102F3000D1F810BD10B55CF7D6F810BD7047000091
:102F4000F0B58D4D00242B0058331C8087B0012034
:102F500000E000BF894B1A68894B9A4200D008E113
:102F600000940434854B874AE318934200D9D1E09A
:102F700090221B6812060393039B1B0F1B079342AF
:102F800079D10398039EFF23360A370018401F406B
:102F9000BA0006380192112817D802F0EBF8091B85
:102FA00016161616161616161620364D5A16616681
:102FB0002F0058373878744BC000E1182818019A50
:102FC00002F01CF93B789E193E70019B04331B19DB
:102FD0001C00C7E72F00593738780230EBE76A4BFF
:102FE000E2181068116880B2090C0A1A92B29308AC
:102FF00001329A18AB1DDA8709232A0043435B1A72
:103000001BB2DB100832D387DFE75F4BE218106892
:10301000116880B2090C0A1A92B2930801329A1808
:103020002B0048331A8009232A0043435B1A1BB242
:10303000DB104A321380C8E7009BBA00980004AB4B
:103040001818514BE11802F0D9F8009BDB190093D6
:10305000BBE74D4BE3181A682B0052331A80B4E7D4
:10306000494BE3181B682B64AFE7474BE3181A681A
:103070002B005433F2E7039A444B9A422FD9039A18
:10308000434B9A422BD823000399424A083391427A
:1030900005D13D4AA41821683F4A518098E7039919
:1030A0003E4A914206D1384AA4182A002168563275
:1030B00011808DE703993A4A914205D1324AA4180A
:1030C0002168354A918083E70399364A914200D0BE
:1030D0007EE72D4AA41821682F4AD18078E7E022A4
:1030E000039BD2051B0F1B07934204D1002000E075
:1030F00000BF231D6CE7039B1B0F082BF9D0039B1C
:103100001B0F0A2BF5D0039B1B0F062BF1D0039B43
:10311000013328D12B00049A4C331A80059B9CB2B2
:10312000059B190C2B000A1B92B2900801328218E1
:103130004E331A8009232A0063435B1A1BB2DB104B
:10314000503213802A00583213785B0813702A001B
:103150005932137854355B0813702888002804D03E
:10316000002007B0F0BD230032E7FA239B002B803C
:10317000F7E701204042F4E79C8CFC07D07EF8077B
:10318000A5A5A5A5BF7FF807D47EF807FFFFFF3FE1
:103190004C420050280000507859FC0702000050B3
:1031A0002400005020000050F8B50026154D2B00DB
:1031B00058331B78B34200DCF8BDF400124B62595F
:1031C0009A4219D12F197B68DB015B0C14D0FEF7F2
:1031D0008BFE092810D93F207A686159930A034071
:1031E000C0208000024013430B607B68074ADB016C
:1031F000DB0D13600136D9E72B592C1962681A6070
:10320000F8E7C0469C8CFC074C100040F859FC07BE
:1032100070B5114E002534001034330059331B783B
:10322000AB4200DC70BD0D4B22689A420FD1FEF715
:103230005BFE09280BD96268094B21681340094AD3
:103240001268520413430B6001350834E5E7236824
:1032500062681A60F8E7C0469C8CFC073830004072
:10326000FFFF01FCF859FC07014B4C3318887047ED
:103270009C8CFC07014B5233188870479C8CFC07D0
:10328000014B5633188870479C8CFC07014B543314
:10329000188870479C8CFC0710B50622014901F084
:1032A000ADFF10BDD47FF80770B51D4D2B68002B06
:1032B00034D15233042209211A4859F79BFB0D23BC
:1032C0000380194B04008380C3800823FF330381EC
:1032D000D8235B0143812860172214490C30260053
:1032E00001F08CFF0B2220002B36327010492C305D
:1032F00001F084FFAA22231DDA77631D1132DA77E9
:103300000C4B09211A78A31DDA77DD22E31DDA7749
:103310002200094B3732300060F7FCF8286870BD96
:10332000F88CFC070D0D00004C040000B156FC07A2
:103330009056FC07798BFC07CD56FC0710B50F4C57
:103340002368002B18D15233042209210C4859F765
:1033500051FB0C2303800B4B02008380C3800823A6
:10336000FF3303818023DB004381206010320B3068
:10337000054B042160F7CEF8206810BDF88CFC07DF
:103380000D0D00004C040000AC56FC0770B5184E43
:103390007569002D2AD12C2304220921154859F7DB
:1033A00029FB0323037007334370ED3304000384C8
:1033B000706185764580102229000A3001F027FFD0
:1033C0002023E3760C4BA5831A00E5837E326584C7
:1033D00011880A1CFB2900D9FB22E284803319885A
:1033E000064A0B1C914200D9131C2385706970BDDD
:1033F000F88CFC07040D0000B0BBFC074808000077
:10340000F8B500240C2501261C4A1D48137E29000E
:1034100059430F5CFF2F0FD1002C00D013760C27DF
:10342000537E39005943174C0D5DFF2D0FD10023FA
:10343000012013765376F8BD411849680133DBB299
:1034400034000029E3D0137688470020F3E70D4CC1
:1034500061184C6800218C4206D10133DBB2E0E7F1
:103460006545FAD00131C9B23E004E43865DB4468F
:10347000FF2EF5D101335376A047E6E7F88CFC0721
:10348000F056FC07D856FC07F8B50C2107000023BE
:10349000124D0A005A43525DFF2A08D100240C261F
:1034A000320062430E4BD15CFF2903D1F8BD0133DA
:1034B000DBB2EEE79B189A6800239A4206D10134EA
:1034C000E4B2EDE78142FAD00133DBB23000584379
:1034D000285CFF28F6D138009047F0E7F056FC074B
:1034E000D856FC0770B50D4C0C22200000211A3074
:1034F00001F08DFE25002000092200242635084910
:1035000027302A7001F07AFE064904206C8459F7AE
:1035100070FC2100042059F79EFC70BDF88CFC075C
:10352000CD56FC079C56FC0710B5FFF7BDFE59F7BA
:103530007CFA0022034B022104201A6059F78BFC0D
:1035400010BDC046F88CFC0710B5FFF7F7FE10BDA4
:1035500010B5FFF7F3FE59F768FA0022054B042077
:103560001A6059F78DFC032803D00221042059F773
:1035700072FC10BDF88CFC0710B5FFF707FF59F778
:1035800054FA0022014B5A6110BDC046F88CFC076A
:10359000054B10B51B78002B02D1FCF7B1FE10BD16
:1035A000FFF7C2FFFBE7C046798BFC0710B500F0C0
:1035B00075FB60F79DF80020FFF742F910BD000091
:1035C0000C224243054B10B59B189B78FF2B02D071
:1035D000FFF75AFF10BDFFF7DBFFFBE7128DFC077B
:1035E00010B5FFF7D5FF10BD10B55FF769FF0028D4
:1035F00001D0FFF7CDFF10BD10B5FFF7C9FF10BD1B
:1036000010B5044B04491A780270013001F0F6FD40
:1036100010BDC0461E8DFC071F8DFC07014B5B8C47
:10362000038070471E8DFC0708230380DB1843804E
:10363000002383807D33C3807047000070B5057818
:103640000C00002D03D0012D0AD048230CE0827815
:10365000064B011D06481A7001F0D0FD257070BDA3
:10366000024B42885A8400232370F8E71E8DFC0722
:103670001F8DFC0701230B7000234B808B8070474C
:103680003F2210B543790400934311D13FF737F936
:10369000030A20706370030C000EA370E0703FF704
:1036A0002EF94023207180B2000A5B4218436071FA
:1036B00010BD10B500F0A2F810BD00001FB54B788A
:1036C0000400002B0BD110220E49684601F096FD34
:1036D000012310226946200000F09EF81FBD012B37
:1036E00003D1094A00920422F4E7022B03D1064BCE
:1036F00000930123F7E7032BF0D10231023B1022A4
:10370000E9E7C046FC56FC0740E2010010B50400A2
:10371000497800F0A1F9200000F0AEF8200000F098
:103720009DF810BD094B10B5C3189AB20120042AA8
:103730000AD80024064A98008358A34201D0845036
:1037400098470020029B1C7010BDC046F2FBFFFF93
:10375000588DFC0770B50C4D84006359002B11D1B6
:103760000A21000201431E330422084859F742F996
:103770000722060060510649023001F03FFD022396
:10378000FF333380285970BD708DFC07140E000084
:103790000C57FC0770B50A4C850066197368002B3E
:1037A0000AD10A21000201431E330422054859F7B9
:1037B00021F90423037070606419606870BDC0460D
:1037C000708DFC07140E000070B50A4C8500661958
:1037D000B368002B0BD10A21000201431E330422DF
:1037E000054859F707F90823FF330380B0606419CF
:1037F000A06870BD708DFC07140E000010B50400A9
:10380000FFF7A8FF59F711F90022024BA400E2507C
:1038100010BDC046708DFC07F7B50E001700019370
:103820000400FFF7B7FF05000B4BA4001C196368E9
:103830001022981C002101F0EAFC63683A00310074
:10384000981C01F0DBFC019B28006B7059F7EDF828
:1038500000236360F7BDC046708DFC0710B50400FF
:10386000FFF7B2FF59F7E1F8024BA4001C1900233F
:10387000A36010BD708DFC0770B50400FFF7A4FFB6
:103880007A214C4321000500094E143133191A7F67
:103890005B8A8919438202770822143001F0AEFC5A
:1038A000A11CA81C8919102201F0A8FC70BDC046FB
:1038B000D88DFC077047000070B504000D0000F0C3
:1038C000B5F8002806D00A4B2A00E018042159F761
:1038D000D0FB70BDFEF7DEFF04220823110005486F
:1038E00059F788F84560047059F79FF8F1E7C0462A
:1038F000030400000104000070470000414B70B554
:10390000049C0D0098420FD03F4B984236D03F4B5D
:1039100098425DD14A68002A49D13D4BC8321A808D
:103920003C4BC03A1A80FEE70B78013BDAB2092A19
:103930001DD8394A9B0099583848814207D1002147
:103940009950D318996200232370180070BD344B2E
:103950009942F8D10422082311002B4859F74AF85C
:103960002B7803706B68436059F75FF8EBE7C82268
:10397000274B1A80274BC03A1A80FEE70878431E6F
:10398000DAB2092A0CD8244A9B0025499E588E4257
:10399000D9D1D118896A99506968FFF78DFFD2E7AC
:1039A000C8221B4B1A801B4BC03A1A80FEE71D4BE6
:1039B0009A4206D9C822164B1A80164BC03A1A8072
:1039C000FEE70878104B0421C01859F752FBBAE7FC
:1039D000154A01238218092AB7D80338C0B2421EFB
:1039E0000D4B9200D1580029ADD00D4DA942AAD05F
:1039F0000A4DA942A7D00025D5509B189D62884743
:103A0000A1E7C04602040000030400000104000016
:103A10000031005002330050888DFC07B538FC0798
:103A2000F938FC07FCFF3F00FCFBFFFF074B188841
:103A30000123C009184008D0054A0020126812046A
:103A400003D4044A128893431800704708000050BA
:103A50003000004054BAFC07F8B57A2444432000F3
:103A600008220F000A4D14302E1931772818110042
:103A700000F088FDA01C28183900102200F082FDFB
:103A80003EF73DFF01237082625D13436355F8BD2D
:103A9000D88DFC07002070471A0A7A235A43034B3B
:103AA00000209B180A7878331A707047D88DFC076D
:103AB0000878F8B502381C0A052821D801F05AFB0D
:103AC00003222032404E7A2262432F488B78861898
:103AD000310078310B702D4DDB070CD50C27674377
:103AE0007132791D101869180622EF1901F086FB52
:103AF0003B79773633700C235C4300232D19EB722E
:103B00000020F8BD0C226243204B00219B187A2232
:103B10006243D9721C4BE0B29B18783319705FF77F
:103B20002FFDEDE77A235C43174D172228193A3011
:103B3000023101F063FB0423625D13432B55DFE781
:103B40007A2310265C43104D32002819613002316F
:103B500001F054FB635D1E436655D1E77A235C4355
:103B60004A8A094D02312819002A06D11C32023036
:103B700001F044FB2A5D0123DFE71C221E3001F027
:103B80003DFB2A5D0223D8E7D88DFC07128DFC0788
:103B900008781B0A10B5DAB207281DD801F0EAFA36
:103BA000041C1C1C141212180C245C430E4800192F
:103BB0000124C4727A20002443430C481C54100092
:103BC000FFF777FD002010BD1000FFF777FDF9E744
:103BD0001000FFF79BFDF5E7C822054B1A80054B47
:103BE000C03A1A80FEE7C046128DFC07D88DFC074C
:103BF0000031005002330050002070470020704711
:103C0000002070471FB514001A0007230293044BCD
:103C10000193069B009323005FF76AFB04B010BD7D
:103C2000D857FC07F7B5000B03030D0B01930905EB
:103C300001D0013501E0002DFBD0012400266442B3
:103C4000019B3003C018B54201D12000FEBD2021E8
:103C5000FDF70CF9041EF8D10700FDF76CF80123FD
:103C6000184201D1F618EBE78022094B1B8813425A
:103C7000F3D0084B1B681B04EFD4074B01379F425E
:103C800002D859F7BAFBE8E701246442DDE7C046F1
:103C9000080000503000004080841E000022054BC8
:103CA00005491A745A619A61DA601A770A60143207
:103CB0001A707047548EFC07808EFC070022024B5E
:103CC0001A745A61DA607047548EFC07092310B5E4
:103CD000190004220A4858F78DFE1B2304000370C4
:103CE000FC205FF7D9FCFC236380F83BA380002312
:103CF0006070E3802372200058F797FE10BDC04625
:103D00001B0D000010B5064C2378032B01D1FCF7E6
:103D1000FFFE142300202370FCF782FB10BDC04679
:103D2000548EFC0710B50400FC203EF74CFD042324
:103D300001001A00034858F75DFE847058F775FEBD
:103D400010BDC04605FC000010B50120FCF768FB63
:103D50001020074C2378034208D0FFF7E3FF00232D
:103D600023746361A361E360237710BD0820F4E747
:103D7000548EFC0710B50400FC203EF724FD0423FC
:103D800001001A00034858F735FE046058F74DFE4D
:103D900010BDC04604FC00000F221D4B73B59B688C
:103DA000040019091140817119001D0D11401540C1
:103DB000C171A5701D0C1540E570180B1D0F190A77
:103DC0001B0E25711340C025637101230026AD0031
:103DD0001040114020702A00617000931C33FCF7E2
:103DE000F1FC2A00E179A07900961C23FCF7EAFC9B
:103DF0002A00E178A07800961B23FCF7E3FC0096EC
:103E00003200617920791A23FCF7DCFC73BDC046CF
:103E1000548EFC0707B5FCF781FF0020FDF724F85E
:103E20006B46D81DFCF7F4FF07BDFF2806D101390A
:103E3000C9B2FD38FD2900D901387047FF2903D1E7
:103E4000414248410130F8E7814280414042F9E770
:103E500073B50C00230B0600150089181803844263
:103E60000AD111002000FFF7DDFE2A00300001AB6F
:103E70002100FDF73FF876BD0A0B9A42F5D080236A
:103E80005B01C018091AEEE730B585B06B46DC1D42
:103E9000AA230C4D23702B780620132B0FD102A8D8
:103EA000FFF77AFF02A8FFF7B5FF69680122023128
:103EB0002000FFF7CDFF40B2002800D10230C0B291
:103EC00005B030BD548EFC0710B5030E0C00132B4B
:103ED00022D8274AD9B2117080B2012B00D82548C8
:103EE00012395060012903D85168022910D8517441
:103EF000132B11D8122B1DD20820102B09D2082009
:103F0000FFF710FF14221A4B1A700023236013E0EE
:103F10001120FFF707FF0FE0FE2B14D0FF2B0CD072
:103F2000FD2BECD1144B9878FF281AD113483EF79B
:103F30001DFC01E0FFF708FF10BDFFF7E3FEFFF7F0
:103F4000BDFE0320E5E70A4B04201B7F002B01D1B7
:103F5000FFF79AFFFFF7E6FEFFF7D4FEFFF7AEFE8E
:103F6000EAE70122024B28331A705FF709FBE3E707
:103F7000548EFC077C90FC07128DFC071111111167
:103F8000054B07B51B78132B03D101ABFCF7E4FFFE
:103F90000EBD01204042FBE7548EFC07F0B597B000
:103FA00000900C00049212203F2A11D9724B0A880B
:103FB0009A420DD14D68E0212A00704B40321A62BE
:103FC00089020C2206A8FFF7DBFF002802DA162080
:103FD00017B0F0BD06AA6A4B128814209A42F7D196
:103FE0000138002DF4D0079B0293089B029A03939B
:103FF000403B9B1A9D42EBD84022029906A8FFF74E
:10400000BFFF0028E3DB069B5E4F5F4E01933B4002
:10401000B34261D106AB5B78512B5DD1200006AB7A
:10402000DB78102209A90C30019300255BF788F892
:10403000A84205D1E3690D9A9D1A6B425D416D005E
:104040004022039906A8FFF79BFF0028BFDB069BD1
:104050001F40B74244D106AB5B78512B40D12000C2
:1040600006AB102209A90C30DE7800275BF768F850
:10407000B84207D10D9B0593059AE3699F1A7B42CD
:104080005F417F00009B013BDBB2012B0BD9009508
:10409000012D08D002230093012F04D03100019894
:1040A000FFF7C3FE00904022FF2106A801F0AFF801
:1040B000009B1520022B1DD1022F00D188E72F4B2A
:1040C000039A5A60009B9D430DD001262B4F3B78ED
:1040D000132B1CD006207BE7002301250193AFE7BB
:1040E00000260127CEE7019B5E1CF6B2FF2BEDD127
:1040F0000026EBE7022D00D16AE7204B029A5A60B6
:10410000FB07E2D4FF2EF3D00136F6B2DEE7012141
:104110007868FFF787FD051EDCD1210006ABDE7055
:10412000636810220793A3680C3109A8089301F073
:1041300065F8E36906AA0D932378137063785370CA
:10414000631CDA7F06AB0133DA773B78132BC1D1DE
:104150004022796806A8FFF77BFE0028BADB200022
:10416000049A7968403A40314030FFF771FE0028E8
:10417000B0DB28002CE7C04670510000548EFC07CD
:1041800070520000FF00FF007000AA0073B500210C
:1041900001260B00234C244D6069227F98421FD1D9
:1041A000002900D0227723780825132B29D16846CF
:1041B000FFF7F2FD6846FFF72DFE6269002A14D072
:1041C000A369002B11D1607C1749FFF7E7FE85B288
:1041D000002811D1A369626902259B18A3610BE035
:1041E000E95C01334A403100D8E7236AA169581CD1
:1041F0005218904209D206250023A0696361FFF797
:10420000B9FDE8B2FFF78EFD73BD934201D25B1A90
:10421000636163686269C9180348FFF719FE0028E3
:10422000D8DAE8E7548EFC07808EFC0707B5002239
:1042300001928A780B00002A06D0586801A9FFF77E
:1042400043FE0198FFF796FD00200EBDF8B5164C11
:104250000F002378132B25D88A78002A1ED0E56812
:10426000002D18D0DB061DD580236669CA789B0017
:10427000B118994214D80D48391D301800F0BEFF0E
:10428000FB789B1963619D4201D1FFF77FFF626953
:10429000E3689A4202D90520FFF744FD0020F8BDEB
:1042A0000720F9E70820F7E7548EFC07808EFC070B
:1042B00010B58B78002B0FD08B880520002B0ED0EB
:1042C000084A1178132907D8C90607D58021072085
:1042D00089008B4203D8D360002010BD0820FFF76F
:1042E00021FDF9E7548EFC078B7810B5002B09D01F
:1042F000094B4A689A601B789A1E012A04D800204C
:10430000FFF738FD002010BD123B012BFAD9082021
:10431000FFF708FDF6E7C046548EFC071FB51400F2
:104320001A0004230293044B0193069B009323007D
:104330005EF7DEFF04B010BD1058FC070B78092BA8
:1043400009D04B78002B06D0C822044B1A80044BAE
:10435000C03A1A80FEE700207047C0460031005086
:1043600002330050F0B50D788BB017001C00012D02
:104370001CD0002D04D0022D2AD000200BB0F0BD9F
:1043800001AE3000FFF73CF9337821000A333A00E0
:10439000194858F72FFB6B460570327804004280AD
:1043A000591D043000F02AFF20000EE0002301AE6A
:1043B00030003380FFF732F90A233A0021000E481B
:1043C00058F718FB05703388438058F72EFBD4E765
:1043D0000A232100084858F70DFB040001AE300005
:1043E000FFF722F92570338863807388A380B38830
:1043F000E380F3882381D7E70B0E000070B510002F
:104400000C001D0058F73CFD032806D0C8220A4BBB
:104410001A800A4BC03A1A80FEE70C222D0A6A4322
:10442000074B00259B18FF22DD7020009A70FCF7D7
:1044300007F8280070BDC04600310050023300501C
:10444000128DFC0710B5100058F71AFD041E06D097
:10445000C822094B1A80094BC03A1A80FEE7042291
:1044600009210123064858F7C5FA0123037058F7BC
:10447000DCFA200010BDC04600310050023300506D
:10448000020D0000F7B510000D001C0058F7F8FCF5
:1044900002282CD1240A0A306043184BE6B21F18B8
:1044A0000190BE70FF2C1CD001230321FB7004205F
:1044B00058F7D1FC2B88114A01998B52481D2900CD
:1044C0006B7A80183B7106220A3100F097FE7A233E
:1044D00063430B4C0122E4187834217830005FF7F5
:1044E00003F830002900FFF76BF80020FEBDC8225A
:1044F000044B1A80044BC03A1A80FEE7128DFC0769
:10450000D88DFC0700310050023300500B7810B5F5
:10451000032B11D00D2B1CD0012B0BD14B78002B72
:1045200006D0C8220D4B1A800D4BC03A1A80FEE708
:10453000FFF722F8002010BD4B78002B06D0C822D0
:10454000064B1A80064BC03A1A80FEE7FFF74CF87C
:10455000F0E74878FBF788FFECE7C04600310050F1
:10456000023300501FB514001A000E230293044BAF
:104570000193069B009323005EF7BAFE04B010BDC2
:104580003058FC0710B58A4201D35EF7E9FE10BD32
:10459000F8B5074601200023024600901946032083
:1045A00044F730FF0446022180300170FF4DFE4881
:1045B0002A6843881146FF31F7310B868088488688
:1045C000FB48066A0123DB069E431E430662FF3258
:1045D0000020FF32383250829082D0821D20088223
:1045E000F4484884F448C882F4480883002048828C
:1045F000384645F747FA01462868FF30F730C28B46
:10460000920992010A43C283ED484168002088471D
:10461000002C02D0204644F7DEFA2046F8BDFFB554
:104620008BB0064616980027022821D00D980188E5
:104630001498814278D37188084640383F2802D8C0
:10464000159851F7DBFA0C98361D0088149A8019DA
:104650000E995AF751FD0C980188149808180C9976
:1046600008800D9801881498081A0D9908805CE15B
:1046700000200E9D079069782C7809022143318033
:10468000E978AC780902214371808C4640390424D2
:104690002D1D024603468E46402900D328786146E8
:1046A00004291FD0052914D0062918D070463F28A8
:1046B0003DD8159851F7A2FA0006000E04D0C14863
:1046C000008D0006C00F30D002230120BE4A002713
:1046D00012E0697800290FD0BC4A17230CE0BC4ACD
:1046E0000F2309E0522802D0D22802D002E0142081
:1046F00000E01520B74A1F23002A1AD0984218D28A
:10470000800010580490002813D0002008900590D5
:1047100070884038402803D32878052430716D1CF8
:10472000701D00900498B5E0FEE03027F0E03327DC
:10473000EEE07088042872D10627E9E0522862D0A2
:104740000CDC4B283FD004DC41286AD0422858D1E9
:1047500011E04C2820D0502853D140E0632830D0BD
:1047600004DC572818D061284BD19BE06C2864D01A
:10477000772846D109E00098297801700098641CD8
:10478000401CA4B26D1C009081E00498401C049071
:104790000178089881427AD10098A41C401C4108F5
:1047A0004900881C009068782A780002104308802D
:1047B0000599AD1CA4B2002969D00890002005908D
:1047C00065E00120FBE71022294600985AF794FC87
:1047D000009810341030A4B21035009057E02046F5
:1047E00040301499039088420BD840222946009803
:1047F0005AF782FC0098403000900398403584B20C
:1048000045E0342743E00822294600985AF774FC13
:10481000009808340830A4B20835009037E068E00A
:10482000FFE70622294600985AF766FC0098A41D67
:10483000801DA4B2AD1D009029E01498001B80B229
:1048400003903088001B001D81B20120079004985E
:10485000401C04900098401C4008400000900498C0
:10486000007857281CD04228CBD100980170090A43
:10487000417000982946801C0090039A5AF73CFC2E
:1048800003980399201884B2009840180090049867
:10489000401C0490007800281ED0002F17D01BE089
:1048A0004908E2E71498001B81B200980391401C6C
:1048B00040084000009001200A46079029460098D1
:1048C0005AF71AFC0399601884B20098DDE70D9935
:1048D0000988A14200D331E70D980088A04208D38F
:1048E00004990978002904D10799002903D1A0422D
:1048F00001D034270CE00D99001B08800C9801882A
:104900000098801B001F08180C99002F08800CD0FD
:104910007088042809D0062807D04038402804D3DE
:104920000E984079707100E0342738460FB0F0BD22
:10493000FFB581B01F4616460C46104658F7A0FA40
:1049400000257F2802D02189062909D03B4632461E
:104950002146019851F7E5FC0546284605B0F0BD13
:10496000C00601D50225F8E720780028F5D1300AE5
:10497000A11D3DF76EFEF0E7F1B598B018983EF72F
:1049800066F80446189805210079134A4006C00FBE
:10499000099068460184618B08460A38904276D2B5
:1049A000E08A062873D319E030BCFC074CB9FC0739
:1049B000C000004010800000294100007671000016
:1049C00058BFFC0748BEFC073803F2074003F20754
:1049D0009C03F207D803F207770C00001922D201DA
:1049E000904254D8228BFF23F5339A424FD8521C61
:1049F0009300D2184243521C0A23521059438A4250
:104A000045DC217F00290CD1617F002909D1A17FDC
:104A1000002906D1E17F002903D12021095DC906C3
:104A200035D0274620377978C906C90E491F0C2989
:104A30002DD2A18A81422AD8E17C002927D0421EAA
:104A4000082A01D9082000E0401E81421FD868468C
:104A500042F7BEF800281AD1FE4D062228622146F0
:104A60000BA85AF749FBA8792E46803E00287DD036
:104A70006079800901280BD00BA8099948F777FBCA
:104A8000010003D03820405C002870D09CE009E190
:104A9000F06A807A012808D0042806D00BA848F7CD
:104AA000D3FB286200284ED054E0686A06220BA986
:104AB00032305AF745FB002806D00BA848F7C4FB54
:104AC0002862002802D012E0686AF9E700210BA8EA
:104AD00048F7D0FB2862F16A897A012905D18B0752
:104AE0001A6849068A430A431A60002811D0F16AFD
:104AF000286A0622253010315AF722FB002808D1F7
:104B0000286AF16A2030C07AC97B884201D1286ABC
:104B10001EE0D148D1490088C96880B206225043BE
:104B200008183DF799FF014614A8062202305AF7EB
:104B3000E3FA13AA00213C203EF75BFA0121B06D95
:104B400043F782FCAAE011A90BA848F793FB28625F
:104B5000002839D001460A9006220FA825315AF7BD
:104B6000CBFA0A9908AA2031C97A01E042E025E08F
:104B70000FA848F7DFF9002812D0286A2030C07A41
:104B8000002809D16846B649008C47F746F908AABB
:104B90000121B34848F7CEF968460BA9008C0AE01A
:104BA00008AA012111A848F7C5F900280CD0296AE4
:104BB0006846008C323147F746F905E00A18527D05
:104BC000002A08D010286DDBF06A407A022806D04F
:104BD000032804D00EE0401C1028EFDBF4E7684601
:104BE000008C052806D308AA0BA8099948F7A2F952
:104BF000002857D000226946204648F744FA00288A
:104C000050D1F06A407A02280BD0032809D0002343
:104C1000684602880BA8099948F756FA002802D07E
:104C20002FE00123F4E7E18A68460181218B41816D
:104C3000618B818178780622410968468175787890
:104C4000C106C90E6846417521460E305AF754FA1E
:104C5000189800794006C10F6846017503882146FF
:104C600002A8B26D42F796FF0146B06502A83EF772
:104C70000EFA0020B065214668461C31008841F7D5
:104C8000FAFF45F779F8734C2034207A002805D0D4
:104C90000021092058F737FA002020720021084629
:104CA00058F7D9F819B0F0BDF8B56E4C0646850036
:104CB0000F4660594C21095C24290ED1406910220D
:104CC000791D2E305AF718FA6159252040310873A2
:104CD00000221146304650F7E4F860594C21095C37
:104CE0000C291FD140691022791D2E305AF704FA81
:104CF00060595F214069095C09072DD401462E31B6
:104D000010221E305AF71CFA00280CD060590921D5
:104D100040300173304650F7E1FD01460022304635
:104D20004FF73EFCF8BD0421684601706A46052134
:104D300030464FF7DFFD6846017860200143684642
:104D40000170304650F7CAFD0146684602780123DB
:104D500030464FF73AFDF8BD304650F7BFFD012809
:104D600009D06059072140300173002211463046B6
:104D700050F797F8F8BD615900204969C031887132
:104D800060590421426930461E324FF7B3FD605925
:104D900041694031897F002907D01A2140300173D1
:104DA0000021304650F707F9F8BD1B214030017350
:104DB000304650F755F9F8BDF8B52A4C054686003F
:104DC000A0594C22125C192A11D140224D30491DA4
:104DD0005AF792F9A059402223494D305AF7B0F9B9
:104DE000002805D020492846203957F714FBF8BD84
:104DF0000B21684601706A46052128464FF77AFD67
:104E0000684601786020014368460170284650F7E3
:104E100065FD014668460278012328464FF7D5FC18
:104E2000F8BDFFB581B003980C46060A002558F777
:104E300027F8002827D0132825D0142823D00B4882
:104E4000B700C0592030407BC00637D5039858F7CB
:104E500017F80DE030BCFC0768B9FC0760BBFC0725
:104E600050F5F1073CBEFC07FCBDFC0778BBFC0716
:104E700015280CD0A0793DF7DDFD304642F778FECD
:104E8000032806D015E0A0793DF7D4FD1FE00225E8
:104E90001DE0A848C0592030407B400704D53D2183
:104EA00030463EF7C5FA04E03D22002130463EF789
:104EB000CEFA3D21304641F7A3FE08E020461038E7
:104EC0009D490181468120464AF78CFB01252846F1
:104ED00044E5F8B510460D46140A57F7D1FF010016
:104EE00030D09448A200835801271E8BBF023E4356
:104EF0001E83132926D0142924D0152911D08058B7
:104F00002D21095C0123CA06002A0CDA0246A032D0
:104F1000967D002E07D093753D21204641F770FE07
:104F200010E00220F8BD090703D50021A0308175EB
:104F3000F7E7A030837520463EF7FAFF2946204662
:104F40003FF72EF80020F8BDFFB581B01546170ACF
:104F5000104657F795FF002837D0132835D014286E
:104F600033D0290A8C00734E152815D0FF2029460E
:104F7000033058F7C8F830592D21095CC90603D50C
:104F8000A030C07D00280DD03D026D1CA8B257F79F
:104F900077FF19280BD00EE030590121A030C175E0
:104FA0000220DBE43D21384641F72AFE0DE0A8B29D
:104FB000012157F750FF30590122018B52029143D2
:104FC0000183384602993EF7EBFF0020C6E4F0B5B6
:104FD00058498700C959002680314A8C8B8C1B2A7E
:104FE00000D21B228C8B944200D222468A849A42A1
:104FF00000D001260B8CCD8C1B2B00D21B23CC8B1D
:105000009C4200D22346CB84AB4200D001260B8EBB
:10501000CD8D9C46FF2349339D4201D21C4600E0C2
:105020002C460D8DA54200D325460D86654500D042
:1050300001264C8EA4468C8D9C4200D21C464B8D82
:10504000A34200D21C464C86644500D00126EB08E2
:105050000B3B9BB29A4200D213468B8652233549B2
:105060005843364BCA591C688032D28C0419FF341D
:10507000D2B201342286C9591A6880318018FF30B3
:10508000498E013041863046F0BD2D4852220068DD
:1050900064308188C37E5143284A12688918FF22F0
:1050A0005F32525AFF31120AD21A01310B8CD2B23E
:1050B000DB0B09D00B8C5B045B0C0B84002A03D147
:1050C0008088204A012111547047FFB51746140A01
:1050D00081B0184A0298A100515840780026194D15
:1050E000002907D0295D002905D0002803D12046DA
:1050F0003FF702FC2E553A46049B0299019840F76F
:105100008CFB2BE410B518220F49104859F7F4FF17
:105110000D4B0F480C3B0ECB0EC00C480D49A03078
:1051200001600D49416009490C482039086010BDF3
:105130007047000078BBFC07060800004CB9FC076C
:1051400084BBFC078190FC07B058FC072000084096
:10515000C000FC070459F007490C00BF070010000D
:1051600002B4714649084900095649008E4402BC00
:105170007047C04602B4714649084900095C4900BD
:105180008E4402BC7047C046084B10B50400002B8B
:1051900002D0002100E000BF054B1868836A002B95
:1051A00000D09847200000F03BF8C0460000000007
:1051B000A058FC0770B500260C4D0D4C641BA410C4
:1051C000A64209D1002600F02DF80A4D0A4C641BB6
:1051D000A410A64205D170BDB300EB589847013624
:1051E000EEE7B300EB5898470136F2E77059FC0739
:1051F0007059FC077059FC077459FC07002310B55F
:105200009A4200D110BDCC5CC4540133F8E70300CE
:105210001218934200D1704719700133F9E700006A
:10522000FEE7C046F8B5C046F8BC08BC9E467047CD
:10523000F8B5C046F8BC08BC9E4670470000A00FF9
:105240000800010000000000000000000000040051
:1052500035383543444539332D314230312D3432E0
:1052600043432D394131332D3235303039424544B5
:105270004336354100000000FC0000005920F207D1
:10528000FF000000000000007852FC077C8BFC0748
:10529000010000000100990903009909070099091C
:1052A0000F0099091F1099092F2099095F51990939
:1052B000010000001130EF000000020002000000B9
:1052C0001230EF00000004000300000000421F0045
:1052D00000000200040000001120C20000000200D3
:1052E000050000001128C2000000020006000000B6
:1052F0001228C200000004000F00000011608500A9
:1053000000000200120000001264C8000000040047
:105310001300000001431F000000040014000000FF
:1053200001111F0000000400150000000C441F00C4
:1053300000000800E60000000800049000000000E3
:1053400000000000030005D08B0035F010005CF079
:10535000000010B0000018B000001AB0030051F0B7
:10536000000038B000003AB0000064B0000066B041
:10537000000022B0000024B0010005D000000000B1
:105380000A00008008030490000004F0030006D027
:10539000000000000A00008008030490000004F0F0
:1053A000030006D0000000002000800000C00000C4
:1053B000000084000000282200000000000004001B
:1053C00000F7FFFF7F00000030F0FF0F000000003B
:1053D00000040000000000000000000000000000C9
:1053E000000000000000000001000001234EFC0747
:1053F00001001D01D34EFC0701001E01494FFC07AF
:1054000001000002CB50FC0700000000000000007B
:1054100005000000385AFC07000400008490FC07D7
:10542000AC0200003C93FC07000400004897FC0716
:10543000700500002003000000A60E00040000001C
:10544000D2000000320000003C000000010000001B
:105450000100000002000000020000000400000043
:105460000300000006000000000000000200000031
:105470000200000000000000000000000300000027
:105480000300000005000000050000000600000009
:105490000A0000000A000000C8000000B80B00006D
:1054A00002000000B80B0000B80B00001000000064
:1054B000D4010000CC010000700200006A0000006E
:1054C0000400000001000000200000000A000000AD
:1054D00001000000E20400008A020000DC05000078
:1054E000AF0000008856FC0700000000000000002C
:1054F0008852FC072C57FC07000000003516FC07FB
:10550000AD17FC0793DEF007F1DEF007F9DEF007D8
:1055100049DFF00761DFF00777DFF00799DFF00779
:1055200019E3F007BDE5F007FDE3F0071DE4F00720
:105530003DE4F0077BE4F0078BE4F007F5F9F007B2
:10554000B1F7F007CFF7F007EBF7F00705F8F00732
:1055500019F8F00797F8F007AFF8F007DFCDF1077B
:1055600067D0F107DBB9F007CD0DF207B10EF207F6
:10557000AD0EF207A90EF2078D21F007FD2EFC07F4
:10558000011FFC07DD2BFC07C92BFC07D12BFC07F7
:10559000B57EF007837DF0079145FC07599EF10722
:1055A000634CF1079504FC07D110F207E504FC07F2
:1055B000B111F2074112F2077912F2070000000060
:1055C0003D2FFC07FB2EFC07B9C6F007D592F1076B
:1055D0001F46FC075F9DF1075F9CF1073149FC07FF
:1055E000EB72F107B922F1076B04F107F92EFC0702
:1055F0002BA4F007F1D2F0075FBDF007D5BDF0078F
:1056000085BEF007CF4FFC07752EF0071581F00718
:10561000DF7FF0070937F007000000002D2FFC079F
:10562000352FFC07152FFC07F3C3F10775C4F107ED
:1056300003C5F1073918FC07000000000000000056
:10564000000000000000000000000000000000005A
:10565000000000000000000000000000000000004A
:10566000000000000000000000000000000000003A
:105670000000000000000000F401060070CAEA808B
:10568000D0070640643200007856FC07708CFC0797
:105690000AFF00D2444C472D424C45000000000058
:1056A000583FF2078090FC070400010054504D530E
:1056B000000903031802180418F5FE1024162F2FF2
:1056C0007777772E69616E612E6F726700444C4761
:1056D0002D50524F58520000FC000000CD3CFC07FA
:1056E00000000000FF0000000000000000000000BB
:1056F000FF000000000000000000000000010203A5
:105700000405060708090A0B0C0D0E0F0300001014
:10571000000100006545FC07FD38FC072537FC0744
:10572000053CFC071D43FC07F80000007935FC0729
:105730000134FC074C57FC07000000001457FC071D
:10574000128DFC07D88DFC07428DFC07C135FC0784
:105750004104FC070000000000000000E935FC07E0
:10576000000000006904FC0700000000F935FC0798
:105770000000000000000000000000000136FC07EF
:105780001D36FC072936FC073D36FC0700000000EB
:105790007536FC078136FC070000000000000000A1
:1057A000B336FC07BD36FC07000000000000000017
:1057B0000D37FC07000000000000000000000000A2
:1057C00000000000000000000000000000000000D9
:1057D0000000000000000000130E0000913BFC07D9
:1057E000150E0000B13AFC07170E0000953AFC07B1
:1057F000190E0000993AFC07150D0000013CFC074A
:10580000210D0000F93BFC07220D0000FD3BFC07C9
:1058100000FC00002D42FC0701FC0000E942FC07EF
:1058200002FC0000B142FC0703FC00004D42FC07F3
:10583000010D00004544FC07000D00000D45FC076C
:10584000000E00003D43FC07010E00008544FC07EC
:10585000030E0000FD43FC070A0E00006543FC0731
:105860000C0E00008531F2071C0D0000C731F20755
:10587000100D00008530F2070F0E0000F931F2071D
:105880002C0E00003932F207120C00005332F207DE
:10589000080E00006F32F2071B0E00009F30F20767
:0458A0001059FC0798
:1058A4007949FC07A94CFC07B94DFC07F99DF007A1
:1058B40000000000E3A1F107000000004FA4F1077D
:0458C40000000000E0
:1058C8004CA8FF7FB0B0B08078A8FF7FB0B0B080A0
:1058D80088A8FF7FB0B0B08098A8FF7FB0B0B08034
:0858E800F8A8FF7F0100000099
:0C58F0000C59FC070C59FC076C00000070
:1058FC008059FC07B8000000288BFC075C050000F1
:10590C000E0000000000000000000000000000007D
:10591C00000000000000000000000000000000007B
:10592C00000000000000000000000000000000006B
:10593C00000000000000000000000000000000005B
:10594C00000000000000000000000000000000004B
:10595C00000000000000000000000000000000003B
:0C596C0000000000C101FC079901FC07CD
:08597800000000008E070E0084
:0400000507FC0115DE
:00000001FF
